8=FIX.4.2|9=266|35=8|49=ABC|56=XYZ|50=AZ12|57=NA|34=833|52=20100130-08:00:51.992|55=GLD|48=PL11YA|167=FUT|207=LIFFE|1=AA1|37=ABC1|17=INDNTHDOG|58=Fill|200=201009|205=13|32=25|151=0|14=25|54=2|40=2|77=O|59=0|150=2|20=0|39=2|442=1|44=99.06|38=25|31=99.06|6=99.06|60=20100130-08:00:52|10=136|
8=FIX.4.2|9=262|35=8|49=ABC|56=XYZ|50=AZ12|57=NA|34=834|52=20100130-08:00:52.008|55=GLD|48=PL11YA|167=FUT|207=LIFFE|1=AA1|37=ABC2|17=93OOO|58=Fill|200=201009|205=13|32=25|151=0|14=25|54=2|40=2|77=O|59=0|150=2|20=0|39=2|442=1|44=99.06|38=25|31=99.06|6=99.06|60=20100130-08:00:52|10=053|